{
  "contractName": "ImageLabel",
  "abi": [
    {
      "inputs": [],
      "stateMutability": "nonpayable",
      "type": "constructor"
    },
    {
      "anonymous": false,
      "inputs": [
        {
          "indexed": true,
          "internalType": "address",
          "name": "sender",
          "type": "address"
        },
        {
          "indexed": false,
          "internalType": "string",
          "name": "image_cid",
          "type": "string"
        }
      ],
      "name": "Labeled",
      "type": "event"
    },
    {
      "inputs": [
        {
          "internalType": "string",
          "name": "image_cid",
          "type": "string"
        }
      ],
      "name": "uploadRawImage",
      "outputs": [],
      "stateMutability": "payable",
      "type": "function",
      "payable": true
    },
    {
      "inputs": [],
      "name": "getNum",
      "outputs": [
        {
          "internalType": "uint256",
          "name": "",
          "type": "uint256"
        }
      ],
      "stateMutability": "view",
      "type": "function",
      "constant": true
    },
    {
      "inputs": [],
      "name": "getRandomImage",
      "outputs": [
        {
          "internalType": "string",
          "name": "",
          "type": "string"
        }
      ],
      "stateMutability": "view",
      "type": "function",
      "constant": true
    },
    {
      "inputs": [
        {
          "internalType": "string",
          "name": "image_cid",
          "type": "string"
        }
      ],
      "name": "sendReward",
      "outputs": [],
      "stateMutability": "nonpayable",
      "type": "function"
    },
    {
      "inputs": [
        {
          "internalType": "string",
          "name": "old_image_cid",
          "type": "string"
        },
        {
          "internalType": "string",
          "name": "new_image_cid",
          "type": "string"
        }
      ],
      "name": "uploadLabeledImage",
      "outputs": [],
      "stateMutability": "nonpayable",
      "type": "function"
    },
    {
      "inputs": [],
      "name": "checkCorrectness",
      "outputs": [],
      "stateMutability": "nonpayable",
      "type": "function"
    }
  ],
  "bytecode": "0x608060405234801561001057600080fd5b5060008081905550610afa806100276000396000f3fe6080604052600436106100555760003560e01c80631d5786031461005a57806360b2e9741461011557806367e0badb14610274578063e46038db1461029f578063eb3b51ef1461032f578063fd40220b14610346575b600080fd5b6101136004803603602081101561007057600080fd5b810190808035906020019064010000000081111561008d57600080fd5b82018360208201111561009f57600080fd5b803590602001918460018302840111640100000000831117156100c157600080fd5b91908080601f016020809104026020016040519081016040528093929190818152602001838380828437600081840152601f19601f82011690508083019250505050505050919291929050505061040e565b005b34801561012157600080fd5b506102726004803603604081101561013857600080fd5b810190808035906020019064010000000081111561015557600080fd5b82018360208201111561016757600080fd5b8035906020019184600183028401116401000000008311171561018957600080fd5b91908080601f016020809104026020016040519081016040528093929190818152602001838380828437600081840152601f19601f820116905080830192505050505050509192919290803590602001906401000000008111156101ec57600080fd5b8201836020820111156101fe57600080fd5b8035906020019184600183028401116401000000008311171561022057600080fd5b91908080601f016020809104026020016040519081016040528093929190818152602001838380828437600081840152601f19601f82011690508083019250505050505050919291929050505061054a565b005b34801561028057600080fd5b506102896107e0565b6040518082815260200191505060405180910390f35b3480156102ab57600080fd5b506102b46107e9565b6040518080602001828103825283818151815260200191508051906020019080838360005b838110156102f45780820151818401526020810190506102d9565b50505050905090810190601f1680156103215780820380516001836020036101000a031916815260200191505b509250505060405180910390f35b34801561033b57600080fd5b50610344610913565b005b34801561035257600080fd5b5061040c6004803603602081101561036957600080fd5b810190808035906020019064010000000081111561038657600080fd5b82018360208201111561039857600080fd5b803590602001918460018302840111640100000000831117156103ba57600080fd5b91908080601f016020809104026020016040519081016040528093929190818152602001838380828437600081840152601f19601f820116905080830192505050505050509192919290505050610915565b005b600034905060405180606001604052803373ffffffffffffffffffffffffffffffffffffffff1681526020018281526020016000548152506001836040518082805190602001908083835b6020831061047c5780518252602082019150602081019050602083039250610459565b6001836020036101000a038019825116818451168082178552505050505050905001915050908152602001604051809103902060008201518160000160006101000a81548173ffffffffffffffffffffffffffffffffffffffff021916908373ffffffffffffffffffffffffffffffffffffffff160217905550602082015181600101556040820151816002015590505081600260008054815260200190815260200160002090805190602001906105359291906109d7565b50600160008082825401925050819055505050565b60006001836040518082805190602001908083835b60208310610582578051825260208201915060208101905060208303925061055f565b6001836020036101000a038019825116818451168082178552505050505050905001915050908152602001604051809103902060000160009054906101000a900473ffffffffffffffffffffffffffffffffffffffff1690508073ffffffffffffffffffffffffffffffffffffffff167f28849b480f55b807e483bef9ba16565e53abaef052ab27c5f964a320aabb9397836040518080602001828103825283818151815260200191508051906020019080838360005b83811015610654578082015181840152602081019050610639565b50505050905090810190601f1680156106815780820380516001836020036101000a031916815260200191505b509250505060405180910390a261069783610915565b60006001846040518082805190602001908083835b602083106106cf57805182526020820191506020810190506020830392506106ac565b6001836020036101000a03801982511681845116808217855250505050505090500191505090815260200160405180910390206002015490506001846040518082805190602001908083835b6020831061073e578051825260208201915060208101905060208303925061071b565b6001836020036101000a0380198251168184511680821785525050505050509050019150509081526020016040518091039020600080820160006101000a81549073ffffffffffffffffffffffffffffffffffffffff02191690556001820160009055600282016000905550506002600082815260200190815260200160002060006107ca9190610a57565b6001600080828254039250508190555050505050565b60008054905090565b60606000805411610862576040517f08c379a00000000000000000000000000000000000000000000000000000000081526004018080602001828103825260148152602001807f4e6f20696d61676520696e20636f6e747261637400000000000000000000000081525060200191505060405180910390fd5b600260008081526020019081526020016000208054600181600116156101000203166002900480601f0160208091040260200160405190810160405280929190818152602001828054600181600116156101000203166002900480156109095780601f106108de57610100808354040283529160200191610909565b820191906000526020600020905b8154815290600101906020018083116108ec57829003601f168201915b5050505050905090565b565b60006001826040518082805190602001908083835b6020831061094d578051825260208201915060208101905060208303925061092a565b6001836020036101000a038019825116818451168082178552505050505050905001915050908152602001604051809103902060010154905060003390508073ffffffffffffffffffffffffffffffffffffffff166108fc839081150290604051600060405180830381858888f193505050501580156109d1573d6000803e3d6000fd5b50505050565b828054600181600116156101000203166002900490600052602060002090601f016020900481019282601f10610a1857805160ff1916838001178555610a46565b82800160010185558215610a46579182015b82811115610a45578251825591602001919060010190610a2a565b5b509050610a539190610a9f565b5090565b50805460018160011615610100020316600290046000825580601f10610a7d5750610a9c565b601f016020900490600052602060002090810190610a9b9190610a9f565b5b50565b610ac191905b80821115610abd576000816000905550600101610aa5565b5090565b9056fea2646970667358221220ffac9ec62929bc44addf4340b02e897eea596d1e152506aa41715574fc7f4c1164736f6c63430006000033",
  "source": "pragma solidity ^0.6.0;\n\ncontract ImageLabel {\n    struct RawImage {\n        address uploader;\n        uint reward;\n        uint idx;\n    }\n    event Labeled(address indexed sender, string image_cid);\n\n    uint num_of_imgs ;\n    mapping(string => RawImage) imgs;\n    mapping(uint => string) indexs;\n\n    constructor() public {\n        num_of_imgs = 0;\n    }\n    function uploadRawImage(string memory image_cid) public payable  {\n        uint reward = msg.value;        \n        // Store sender information.\n        imgs[image_cid] = RawImage(msg.sender, reward, num_of_imgs );\n        indexs[num_of_imgs] = image_cid;\n        num_of_imgs += 1;\n    }\n\n    function getNum() public view returns (uint) {\n        return num_of_imgs;\n    }\n\n    function getRandomImage() public view returns (string memory) {\n        // return a random raw image\n        require(num_of_imgs > 0, \"No image in contract\");\n        return indexs[0];\n    }\n\n    function sendReward(string memory image_cid) public {\n        uint reward = imgs[image_cid].reward;\n        address payable receiver = payable(msg.sender);\n        receiver.transfer(reward);\n        // require(success, \"Failed to send ether.\");\n    }\n\n    function uploadLabeledImage(string memory old_image_cid, string memory new_image_cid) public {\n\n        // emit event\n        address uploader_addr = imgs[old_image_cid].uploader;\n        emit Labeled(uploader_addr, new_image_cid);\n        // tmp directly send reward to solver.\n        sendReward(old_image_cid);\n        // clear imgs data\n        uint img_idx = imgs[old_image_cid].idx;\n\n        delete imgs[old_image_cid];\n        delete indexs[img_idx];\n        num_of_imgs -= 1;\n    }\n\n    function checkCorrectness() public {\n        // TODO: uploader check image correctness\n    }\n}",
  "sourcePath": "/home/cyctw/react-truffle/contracts/ImageLabel.sol",
  "compiler": {
    "name": "solc",
    "version": "0.6.0+commit.26b70077.Emscripten.clang"
  },
  "schemaVersion": "3.4.4",
  "updatedAt": "2022-03-31T18:49:48.442Z",
  "networkType": "ethereum",
  "devdoc": {
    "methods": {}
  },
  "userdoc": {
    "methods": {}
  }
}