{
  "contractName": "ImageLabel",
  "abi": [
    {
      "inputs": [],
      "stateMutability": "nonpayable",
      "type": "constructor"
    },
    {
      "anonymous": false,
      "inputs": [
        {
          "indexed": true,
          "internalType": "address",
          "name": "sender",
          "type": "address"
        },
        {
          "indexed": false,
          "internalType": "string",
          "name": "image_url",
          "type": "string"
        },
        {
          "indexed": false,
          "internalType": "string",
          "name": "classname",
          "type": "string"
        }
      ],
      "name": "Labeled",
      "type": "event"
    },
    {
      "inputs": [
        {
          "internalType": "string",
          "name": "image_url",
          "type": "string"
        }
      ],
      "name": "uploadRawImage",
      "outputs": [],
      "stateMutability": "payable",
      "type": "function",
      "payable": true
    },
    {
      "inputs": [],
      "name": "getNum",
      "outputs": [
        {
          "internalType": "uint256",
          "name": "",
          "type": "uint256"
        }
      ],
      "stateMutability": "view",
      "type": "function",
      "constant": true
    },
    {
      "inputs": [],
      "name": "getTotalSupply",
      "outputs": [
        {
          "internalType": "uint256",
          "name": "",
          "type": "uint256"
        }
      ],
      "stateMutability": "view",
      "type": "function",
      "constant": true
    },
    {
      "inputs": [],
      "name": "getRandomImage",
      "outputs": [
        {
          "internalType": "string",
          "name": "",
          "type": "string"
        }
      ],
      "stateMutability": "view",
      "type": "function",
      "constant": true
    },
    {
      "inputs": [
        {
          "internalType": "string",
          "name": "image_url",
          "type": "string"
        }
      ],
      "name": "getImageReward",
      "outputs": [
        {
          "internalType": "uint256",
          "name": "",
          "type": "uint256"
        }
      ],
      "stateMutability": "view",
      "type": "function",
      "constant": true
    },
    {
      "inputs": [
        {
          "internalType": "string",
          "name": "image_url",
          "type": "string"
        },
        {
          "internalType": "string",
          "name": "classname",
          "type": "string"
        }
      ],
      "name": "uploadLabeledImage",
      "outputs": [],
      "stateMutability": "nonpayable",
      "type": "function"
    },
    {
      "inputs": [],
      "name": "checkCorrectness",
      "outputs": [],
      "stateMutability": "nonpayable",
      "type": "function"
    }
  ],
  "bytecode": "0x608060405234801561001057600080fd5b50600080819055506000600181905550610e638061002f6000396000f3fe6080604052600436106100705760003560e01c80638f7790891161004e5780638f779089146102ba578063c4e41b2214610396578063e46038db146103c1578063eb3b51ef1461045157610070565b80631d5786031461007557806360b2e9741461013057806367e0badb1461028f575b600080fd5b61012e6004803603602081101561008b57600080fd5b81019080803590602001906401000000008111156100a857600080fd5b8201836020820111156100ba57600080fd5b803590602001918460018302840111640100000000831117156100dc57600080fd5b91908080601f016020809104026020016040519081016040528093929190818152602001838380828437600081840152601f19601f820116905080830192505050505050509192919290505050610468565b005b34801561013c57600080fd5b5061028d6004803603604081101561015357600080fd5b810190808035906020019064010000000081111561017057600080fd5b82018360208201111561018257600080fd5b803590602001918460018302840111640100000000831117156101a457600080fd5b91908080601f016020809104026020016040519081016040528093929190818152602001838380828437600081840152601f19601f8201169050808301925050505050505091929192908035906020019064010000000081111561020757600080fd5b82018360208201111561021957600080fd5b8035906020019184600183028401116401000000008311171561023b57600080fd5b91908080601f016020809104026020016040519081016040528093929190818152602001838380828437600081840152601f19601f82011690508083019250505050505050919291929050505061062a565b005b34801561029b57600080fd5b506102a4610a0f565b6040518082815260200191505060405180910390f35b3480156102c657600080fd5b50610380600480360360208110156102dd57600080fd5b81019080803590602001906401000000008111156102fa57600080fd5b82018360208201111561030c57600080fd5b8035906020019184600183028401116401000000008311171561032e57600080fd5b91908080601f016020809104026020016040519081016040528093929190818152602001838380828437600081840152601f19601f820116905080830192505050505050509192919290505050610a18565b6040518082815260200191505060405180910390f35b3480156103a257600080fd5b506103ab610a93565b6040518082815260200191505060405180910390f35b3480156103cd57600080fd5b506103d6610a9d565b6040518080602001828103825283818151815260200191508051906020019080838360005b838110156104165780820151818401526020810190506103fb565b50505050905090810190601f1680156104435780820380516001836020036101000a031916815260200191505b509250505060405180910390f35b34801561045d57600080fd5b50610466610c0c565b005b6000349050600081116104e3576040517f08c379a00000000000000000000000000000000000000000000000000000000081526004018080602001828103825260148152602001807f5265776172642063616e2774206265207a65726f00000000000000000000000081525060200191505060405180910390fd5b60405180606001604052803373ffffffffffffffffffffffffffffffffffffffff1681526020018281526020016000548152506002836040518082805190602001908083835b6020831061054c5780518252602082019150602081019050602083039250610529565b6001836020036101000a038019825116818451168082178552505050505050905001915050908152602001604051809103902060008201518160000160006101000a81548173ffffffffffffffffffffffffffffffffffffffff021916908373ffffffffffffffffffffffffffffffffffffffff16021790555060208201518160010155604082015181600201559050508160036000805481526020019081526020016000209080519060200190610605929190610d40565b5080600160008282540192505081905550600160008082825401925050819055505050565b60006002836040518082805190602001908083835b60208310610662578051825260208201915060208101905060208303925061063f565b6001836020036101000a0380198251168184511680821785525050505050509050019150509081526020016040518091039020600101541161070c576040517f08c379a00000000000000000000000000000000000000000000000000000000081526004018080602001828103825260188152602001807f5468697320696d616765206973206e6f7420657869737421000000000000000081525060200191505060405180910390fd5b60006002836040518082805190602001908083835b602083106107445780518252602082019150602081019050602083039250610721565b6001836020036101000a038019825116818451168082178552505050505050905001915050908152602001604051809103902060000160009054906101000a900473ffffffffffffffffffffffffffffffffffffffff1690508073ffffffffffffffffffffffffffffffffffffffff167f5ca18237a4cb3b454d151447ed294ae831cd8461a58e301d30f35fc276b02eea8484604051808060200180602001838103835285818151815260200191508051906020019080838360005b8381101561081b578082015181840152602081019050610800565b50505050905090810190601f1680156108485780820380516001836020036101000a031916815260200191505b50838103825284818151815260200191508051906020019080838360005b83811015610881578082015181840152602081019050610866565b50505050905090810190601f1680156108ae5780820380516001836020036101000a031916815260200191505b5094505050505060405180910390a26108c683610c0e565b60006002846040518082805190602001908083835b602083106108fe57805182526020820191506020810190506020830392506108db565b6001836020036101000a03801982511681845116808217855250505050505090500191505090815260200160405180910390206002015490506002846040518082805190602001908083835b6020831061096d578051825260208201915060208101905060208303925061094a565b6001836020036101000a0380198251168184511680821785525050505050509050019150509081526020016040518091039020600080820160006101000a81549073ffffffffffffffffffffffffffffffffffffffff02191690556001820160009055600282016000905550506003600082815260200190815260200160002060006109f99190610dc0565b6001600080828254039250508190555050505050565b60008054905090565b6000806002836040518082805190602001908083835b60208310610a515780518252602082019150602081019050602083039250610a2e565b6001836020036101000a038019825116818451168082178552505050505050905001915050908152602001604051809103902060010154905080915050919050565b6000600154905090565b60606000805411610b16576040517f08c379a00000000000000000000000000000000000000000000000000000000081526004018080602001828103825260148152602001807f4e6f20696d61676520696e20636f6e747261637400000000000000000000000081525060200191505060405180910390fd5b6000444260405160200180838152602001828152602001925050506040516020818303038152906040528051906020012060001c90506000548181610b5757fe5b069050600360008281526020019081526020016000208054600181600116156101000203166002900480601f016020809104026020016040519081016040528092919081815260200182805460018160011615610100020316600290048015610c015780601f10610bd657610100808354040283529160200191610c01565b820191906000526020600020905b815481529060010190602001808311610be457829003601f168201915b505050505091505090565b565b60006002826040518082805190602001908083835b60208310610c465780518252602082019150602081019050602083039250610c23565b6001836020036101000a038019825116818451168082178552505050505050905001915050908152602001604051809103902060010154905060003373ffffffffffffffffffffffffffffffffffffffff166108fc839081150290604051600060405180830381858888f19350505050905080610d2b576040517f08c379a00000000000000000000000000000000000000000000000000000000081526004018080602001828103825260158152602001807f4661696c656420746f2073656e642065746865722e000000000000000000000081525060200191505060405180910390fd5b81600160008282540392505081905550505050565b828054600181600116156101000203166002900490600052602060002090601f016020900481019282601f10610d8157805160ff1916838001178555610daf565b82800160010185558215610daf579182015b82811115610dae578251825591602001919060010190610d93565b5b509050610dbc9190610e08565b5090565b50805460018160011615610100020316600290046000825580601f10610de65750610e05565b601f016020900490600052602060002090810190610e049190610e08565b5b50565b610e2a91905b80821115610e26576000816000905550600101610e0e565b5090565b9056fea2646970667358221220dee187ee728f76c0a0899aecc925c546f14b5fa1ab53cfee42ab06fefff4e11b64736f6c63430006000033",
  "source": "pragma solidity ^0.6.0;\n\ncontract ImageLabel {\n    struct RawImage {\n        address uploader;\n        uint reward;\n        uint idx;\n    }\n    event Labeled(address indexed sender, string image_url, string classname);\n\n    uint num_of_imgs;\n    uint totalSupply; \n    mapping(string => RawImage) imgs;\n    mapping(uint => string) indexs;\n\n    constructor() public {\n        num_of_imgs = 0;\n        totalSupply = 0;\n    }\n    function uploadRawImage(string memory image_url) public payable  {\n        uint reward = msg.value;        \n        require(reward > 0, \"Reward can't be zero\");\n        // Store sender information.\n        imgs[image_url] = RawImage(msg.sender, reward, num_of_imgs );\n        indexs[num_of_imgs] = image_url;\n        totalSupply += reward;\n        num_of_imgs += 1;\n    }\n\n    function getNum() public view returns (uint) {\n        return num_of_imgs;\n    }\n\n    function getTotalSupply() public view returns (uint) {\n        return totalSupply;\n    }\n\n    function getRandomImage() public view returns (string memory) {\n        // return a random raw image\n        require(num_of_imgs > 0, \"No image in contract\");\n        uint randomidx = uint(keccak256(abi.encodePacked(block.difficulty, block.timestamp)));\n        randomidx %= num_of_imgs;\n        return indexs[randomidx];\n    }\n\n    function getImageReward(string memory image_url) public view returns (uint) {\n        uint r = imgs[image_url].reward;\n        return r;\n    }\n\n    function sendReward(string memory image_url) internal {\n        uint reward = imgs[image_url].reward;\n        bool success = payable(msg.sender).send(reward);\n        require(success, \"Failed to send ether.\");\n        totalSupply -= reward;\n    }\n\n    function uploadLabeledImage(string memory image_url, string memory classname) public {\n        // ensure the image still exist\n        require(imgs[image_url].reward > 0, \"This image is not exist!\");\n\n        // emit event\n        address uploader_addr = imgs[image_url].uploader;\n        emit Labeled(uploader_addr, image_url, classname);\n        // tmp directly send reward to solver.\n        sendReward(image_url);\n        // clear imgs data\n        uint img_idx = imgs[image_url].idx;\n\n        delete imgs[image_url];\n        delete indexs[img_idx];\n        num_of_imgs -= 1;\n    }\n\n    function checkCorrectness() public {\n        // TODO: uploader check image correctness\n    }\n\n}",
  "sourcePath": "/home/cyctw/react-truffle/contracts/ImageLabel.sol",
  "compiler": {
    "name": "solc",
    "version": "0.6.0+commit.26b70077.Emscripten.clang"
  },
  "schemaVersion": "3.4.4",
  "updatedAt": "2022-04-01T14:18:58.764Z",
  "networkType": "ethereum",
  "devdoc": {
    "methods": {}
  },
  "userdoc": {
    "methods": {}
  }
}